:020000040800F2
:1000000030070020890100089101000893010008D1
:100010009501000897010008990100080000000000
:100020000000000000000000000000009B0100082C
:100030009D010008000000009F010008A1010008C8
:10004000A3010008A3010008A3010008A301000800
:10005000A3010008A3010008A3010008A3010008F0
:10006000A3010008A3010008A3010008A3010008E0
:10007000A3010008A3010008A3010008A3010008D0
:10008000A3010008A3010008A3010008A3010008C0
:10009000A3010008A3010008A3010008A3010008B0
:1000A000A3010008A3010008A3010008A3010008A0
:1000B000A3010008A301000800000000A30100083C
:1000C000A30100080000000000000000A3010008D8
:1000D00000000000A3010008A301000800000000C8
:1000E000A3010008A3010008A301000800F002F822
:1000F00000F03AF80AA090E8000C82448344AAF188
:100100000107DA4501D100F02FF8AFF2090EBAE885
:100110000F0013F0010F18BFFB1A43F0010318473B
:10012000B0040000D0040000103A24BF78C878C1A1
:10013000FAD8520724BF30C830C144BF04680C60ED
:10014000704700000023002400250026103A28BF35
:1001500078C1FBD8520728BF30C148BF0B60704739
:100160001FB51FBD10B510BD00F031F81146FFF7E7
:10017000F7FF00F022FA00F04FF803B4FFF7F2FFA8
:1001800003BC00F057F800000948804709480047C1
:10019000FEE7FEE7FEE7FEE7FEE7FEE7FEE7FEE737
:1001A000FEE7FEE704480549054A064B7047000094
:1001B00095040008ED000008300100203007002001
:1001C00030030020300300207047704770477546A9
:1001D00000F02CF8AE4605006946534620F00700B3
:1001E000854618B020B5FFF7DDFFBDE820404FF091
:1001F00000064FF000074FF000084FF0000B21F011
:100200000701AC46ACE8C009ACE8C009ACE8C009DD
:10021000ACE8C0098D46704710B50446AFF30080C6
:100220002046BDE81040FFF7A8BF00000048704717
:10023000D000002001491820ABBEFEE726000200D6
:100240007047000000B52A48006820F010002849D7
:1002500008600A2000F072F9072000F06FF92448C6
:10026000006840F0100022490860642000F094F912
:100270001F48006820F010001D4908600B2000F0A6
:100280005DF9072000F05AF91948006840F01000A5
:1002900017490860642000F07FF91548006820F0D5
:1002A0001000134908600C2000F048F9012000F00C
:1002B00045F90F48006840F010000D4908606420BF
:1002C00000F06AF90A48006820F010000849086048
:1002D0000F2000F033F9012000F030F904480068E5
:1002E00040F0100002490860642000F055F900BD9C
:1002F0000C080140F0B50025002722E0012419E098
:100300001148006820F010000F4908600F48405D58
:1003100040EA0426304600F023F90B48006840F01C
:10032000100009490860681CC5B20A2000F034F9C1
:10033000601CC4B2092CE3DB322000F02DF9781CDC
:10034000C7B2052FDADBF0BD0C0801400000002029
:1003500000B50A2000F020F91048806941F205013B
:1003600008430E4988610E4800680E4908430C494D
:1003700008600D48008820F080000B49088008467E
:10038000008820F4006008800846008840F044009F
:1003900008800A2000F000F900BD000000100240B3
:1003A000000801400000F3F00030014010B500F0FB
:1003B00001F810BD0CB50020019000903348006892
:1003C00040F480303149086000BF3048006800F4D4
:1003D000003000900198401C0190009818B90198D5
:1003E000B0F5A06FF1D12948006800F4003010B1D9
:1003F0000120009001E0002000900098012843D1E6
:100400002348006840F01000214908600846006851
:1004100020F0030008600846006840F00200086011
:100420001A484068194948600846406848600846CC
:10043000406840F4806048600846406820F47C10C2
:1004400048600846406840F4E81048600846006884
:1004500040F08070086000BF0C48006800F0007039
:100460000028F9D00948406820F003000749486097
:100470000846406840F00200486000BF03484068FA
:1004800000F00C000828F9D10CBD0000001002405B
:100490000020024010B51348006840F001001149E7
:1004A000086008464068104908400E494860084600
:1004B00000680E4908400B4908600846006820F4AF
:1004C000802008600846406820F4FE0048604FF431
:1004D0001F008860FFF76AFF4FF000600449086062
:1004E00010BD0000001002400000FFF8FFFFF6FE04
:1004F00008ED00E00E48806940F005000C49886175
:100500000846C06940F40030C8610A48006840F4F9
:1005100034400849086047F2305007490880081DF8
:10052000008842F20C0108430349091D0880704706
:1005300000100240000801400844004007490989B2
:1005400001F0020109B10549888100BF0349098909
:1005500001F080010029F9D170470000003001400E
:100560000C49098901F0020111B10112094A918176
:1005700000BF0849098901F080010029F9D1054926
:10058000888100BF0349098901F080010029F9D160
:10059000704700000030014008B50BE000210091D9
:1005A00002E00099491C009141F288320099914281
:1005B000F7DB401E0028F1DC08BDFFF79BFFFFF7CB
:1005C000C7FEFFF73FFE01E0FFF794FEFCE70000E7
:1005D000F005000800000020D000000028010008FD
:1005E000C0060008D000002060060000440100089A
:1005F0003E40407E02027C003C42424242423C007D
:100600004262524A464242004242424242423C0018
:1006100000000000000000000000000000000000DA
:1006200000000000000000000000000000000000CA
:1006300000000000000000000000000000000000BA
:1006400000000000000000000000000000000000AA
:10065000000000000000000000000000000000009A
:10066000000000000000000000000000000000008A
:10067000000000000000000000000000000000007A
:10068000000000000000000000000000000000006A
:10069000000000000000000000000000000000005A
:1006A000000000000000000000000000000000004A
:1006B000000000000000000000000000000000003A
:040000050800018965
:00000001FF
